:020000040000FA
:020000002528B1
:100008007E1480314E01961E0A280B2813288C1E58
:100018000E280F28132882318322803123280B1FB2
:10002800162817282328171F1A281B2823280D1FCE
:100038001E281F28232882317422803123287E100D
:10004800090026288231B7228031B1008231B822D6
:100058008031B2008231B9228031B3008231BA22B4
:100068008031B40020308400003085000D308231AA
:10007800A02280317E1040014128823154228031F3
:100088009230F0000230F1008231AC2280316430CD
:10009800F0000230F1008231A62280318B170B1755
:1000A800630040012C0803195A285B284029813134
:1000B800B121803140292508803AF9008030790241
:1000C800031D6828FB302402031C6B286C28552864
:1000D80040013408FA003308F9000530FB007A0DB6
:1000E800FA0CF90CFB0B732810307905FC00330867
:1000F80007397C04FD007D088C063408FA003308B3
:10010800F9007A0DFA0CF90C7A0DFA0CF90C7A0D43
:10011800FA0CF90C79083F39FB007B088E06A4011C
:10012800A50155283208803AF9002708803A790253
:10013800031DA028260831020318A328A42855283F
:1001480040013335B300340DB4003408803AF90067
:1001580082307902031DB22801303302031CB5280E
:10016800B628BB2801304001B3000030B40040017C
:100178003408FA003308F9000530FB007A0DFA0C50
:10018800F90CFB0BC22810307905FC00330807393D
:100198007C048C003408FA003308F9007A0DFA0C54
:1001A800F90C7A0DFA0CF90C7A0DFA0CF90C79089D
:1001B8003F398E00A601A7015528AA01AB01B50158
:1001C800B601F9280130F9000030FA004001350A7B
:1001D800EF28F935FA0D890BED287908AA047A0871
:1001E800AB040130B5070030B63D0A30F0000030EE
:1001F800F1003208F3003108F200813152218031D8
:100208000B30F90070087902FA0071090318890A9D
:10021800FB0040013608803AFC007B08803A7C02EB
:10022800031D18297A083502031C1B291C29E628F6
:1002380040012B08FA002A08F9000530FB007A0D66
:10024800FA0CF90CFB0B232910307905FC002A085D
:1002580007397C048C002B08FA002A08F9007A0D6B
:10026800FA0CF90C7A0DFA0CF90C7A0DFA0CF90C57
:1002780079083F398E00552840012908003A0319AA
:10028800462955282808003A03195F28013A031916
:100298009628033A0319E12855282528F601F11F65
:1002A800562957295E29F009F109F00A0319F10ABC
:1002B800F601F60AF31F612962296B29F209F3098D
:1002C800F20A0319F30A0130F4007408F606F7017C
:1002D800F80170087104031972297329A229F5011C
:1002E800F50A7F290130F035F10D890B77290130A6
:1002F800F4007408F507F11F822983297629013053
:10030800F735F80D890B842971087302031D8E29AE
:1003180070087202031C9129922997297008F20229
:100328007108F33B77140130F136F00C890B9829EA
:100338000130F502031DA129A22983297608031992
:10034800A629A729AC29F709F809F70A0319F80A11
:100358007808F1007708F00008004001AC01210896
:10036800803AF0008B307002031DBC29B83020029F
:100378000318BF29C029FA29E429A601A7010130D9
:10038800A8000030A9000B2AA401A501A801A90111
:100398000B2AF630B107FF30B23D3208803AF00040
:1003A80080307002031DDA290A3031020318DD2972
:1003B800DE290B2A64304001B1000030B2000B2A5C
:1003C80040012908003A0319EA290B2A2808003AAB
:1003D8000319C129013A0319C829033A0319CD2978
:1003E8000B2A0230A8000030A9000B2A4001290876
:1003F800003A0319002A0B2A2808003A0319F5299C
:10040800013A0319F529033A0319C1290B2A4001B6
:10041800A001A1010800400198019A01283092002A
:1004280094017E01CE01B8012030B900CF01BA0194
:10043800D0013730BB003F30D1003F30BC003F30E7
:10044800D20005307D019C00080004304501900071
:1004580013308F00910112308D008C014E010D1365
:100468001717BF30F0000230F1008231A622823126
:10047800C03045018E00080044304B019F000F300A
:100488009D009C014E018C129616C030F00002307F
:10049800F1008231AC22823180304B019E0008008D
:1004A80082310F2282318231B22282318231BB22E3
:1004B8008231823129228231823140228231080000
:1004C800640040018C1A692A6A2A6D2AA201A301D4
:1004D800732A2308A1002208A000AC01AC0A080076
:1004E8004E010D1340012F08300403197C2A7D2A80
:1004F800822A30088A002F080A00823108004E013B
:100508008C1240012D082E0403198B2A8C2A912A5B
:100518002E088A002D080A008231080001304001A7
:10052800A6070030A73D0130A4070030A53D0130E3
:10053800A2070030A33D0800640080010131890B47
:10054800A12A003471084001B0007008AF0008000B
:1005580071084001AE007008AD000800510191011A
:100568009301920108003234003401340034203001
:0A05780050018C0008000800080084
:020000040001F9
:04000E00ED3FF73F8C
:04001400FF3FFF3F6C
:00000001FF
